:020000040800F2
:1000000000000320BD0500085D2200085F220008F3
:100010006122000863220008652200080000000039
:100020000000000000000000000000000177000850
:100030006722000800000000917700082570000882
:100040000D0600080D0600080D0600080D06000844
:100050000D0600080D0600080D0600080D06000834
:100060000D0600080D0600080D0600080D06000824
:100070000D0600080D0600080D0600080D06000814
:100080000D0600080D0600080D0600080D06000804
:100090000D0600080D0600080D0600080D060008F4
:1000A0000D0600080D0600080D0600080D060008E4
:1000B0000D0600080D0600080D0600080D060008D4
:1000C0000D0600080D0600080D0600080D060008C4
:1000D0000D0600080D0600080D0600080D060008B4
:1000E0000D0600080D0600080D0600080D060008A4
:1000F0000D0600080D0600080D0600080D06000894
:100100000D0600080D0600080D0600080D06000883
:100110000D0600080D060008692200080D060008FB
:100120000D0600080D0600080D0600080D06000863
:100130000D0600080D0600080D0600080D06000853
:100140000D0600080D0600080D0600080D06000843
:100150000D0600080D0600080D0600080D06000833
:100160000D0600080D0600080D0600080D06000823
:100170000D0600080D0600080D060008000000002E
:100180000D0600080D0600080D0600080D06000803
:100190000D0600080D0600080D0600080D060008F3
:0C01A000752200080D06000881220008EE
:1001B00010B5054C237833B9044B13B10448AFF3A1
:1001C00000800123237010BD800300200000000088
:1001D0006C3D020808B5034B1BB103490348AFF35C
:1001E000008008BD00000000840300206C3D020870
:1001F00001F0FF01102A2BDB10F0070F08D010F8D8
:10020000013B013A8B422DD010F0070F42B3F6D1DB
:10021000F0B441EA012141EA014122F007047FF0F4
:1002200000070023F0E80256083C85EA010586EA4B
:10023000010685FA47F5A3FA87F586FA47F6A5FA87
:1002400087F68EB9EED1F0BC01F0FF0102F0070293
:1002500032B110F8013B013A83EA010313B1F8D13E
:100260000020704701387047002D06BF354603381F
:10027000073815F0010F07D1013015F4807F02BF58
:10028000013015F4C03F0130F0BC0138704700BFA9
:1002900053B94AB9002908BF00281CBF4FF0FF31ED
:1002A0004FF0FF3000F088B9ADF1080C6DE904CED5
:1002B00000F006F8DDF804E0DDE9022304B0704741
:1002C0002DE9F047089D0F4604468C46002B48D187
:1002D0008A42164661D9B2FA82F34BB1C3F12002C9
:1002E00001FA03FC20FA02F29E4042EA0C0C9C4008
:1002F0004FEA164EB7B2BCFBFEF1220C0EFB11CC3E
:1003000042EA0C4201FB07F0904209D9B21801F110
:10031000FF3C80F0EE80904240F2EB8002393244A4
:10032000121AA4B2B2FBFEF00EFB102244EA024401
:1003300000FB07F7A74209D9341900F1FF3280F01A
:10034000DA80A74240F2D7803444023840EA0140C4
:10035000E41B00211DB1DC400023C5E90043BDE8DA
:10036000F0878B4206D90DB1C5E90001002108468E
:10037000BDE8F087B3FA83F1002948D1BB4202D32C
:10038000824200F20781841A67EB0302012094463F
:10039000002DE4D0C5E9004CE1E7002A00F092808E
:1003A000B2FA82F3002B40F0A8808A1A4FEA164E68
:1003B0001FFA86FC0121200CB2FBFEF70EFB172270
:1003C00040EA02420CFB07F0904207D9B21807F14D
:1003D000FF3802D2904200F2E2804746121AA4B2DD
:1003E000B2FBFEF00EFB102244EA02440CFB00FCC0
:1003F000A44507D9341900F1FF3202D2A44500F216
:10040000CB801046A4EB0C0440EA0740A2E7C1F100
:1004100020068B4022FA06FC4CEA030C07FA01F492
:1004200020FA06F3F7404FEA1C49234300FA01F88B
:100430001FFA8CFEB7FBF9F01C0C09FB107744EA9D
:10044000074400FB0EF7A74202FA01F20AD91CEB9F
:10045000040400F1FF3A80F09B80A74240F29880AC
:1004600002386444E41B9FB2B4FBF9F309FB134464
:1004700047EA044403FB0EFEA64509D91CEB04041D
:1004800003F1FF3780F08280A6457FD9023B6444A8
:1004900043EA0040A4EB0E04A0FB02E7BC42734613
:1004A000B94663D360D05DB1B8EB030264EB0904D5
:1004B00004FA06F622FA01F31E43CC40C5E90064B3
:1004C00000214CE76208480842EAC1710B0C43EA7C
:1004D00000438AB242EA0342B3FBF6F1E407B446B2
:1004E0003746B6461F23B0FBF6F0D21B41EA004167
:1004F00061E7614614E7104628E7C3F1200120FABE
:1005000001F29E4027FA01F19F403A434FEA164E0E
:100510001FFA86FCB1FBFEF70EFB1710110C41EA27
:10052000004107FB0CF8884504FA03F43AD9711826
:1005300007F1FF3001D288451FD8A1EB0801B1FBBC
:10054000FEF808FB0CF70EFB181192B242EA0142CA
:10055000BA422FD2B21808F1FF31C6D2BA42C4D281
:10056000A8F102013244C0E7F0459CD2BEEB020381
:1005700067EB0C070138B94695E7A6EB080841443C
:10058000B81EB1FBFEF808FB0CF7DCE73B467FE743
:10059000504667E70846FBE63444023832E7023F3C
:1005A00032441BE7A1EB08013846B1FBFEF808FB1B
:1005B0000CF7C8E7414698E7704700BFDFF834D032
:1005C000002103E00C4B5B58435004310B480C4BAB
:1005D00042189A42F6D30B4A02E0002342F8043B49
:1005E000094B9A42F9D304F0F1F822F00BFE01F026
:1005F000B1F870470000032084290908000000209A
:100600008001002080030020005A0120FEE770478F
:1006100008B500F0D5FDBDE8084000F053BD00F07E
:10062000D1BD704710B50421044621F0E6FA2046FA
:1006300010BD000038B50C4B0C4C18800C4B8220C0
:1006400019806368984740F6110398420AD1094D12
:1006500023682C60822098472B688220DB689847AB
:10066000002038BD0120FCE7A60300204C0000203C
:10067000A4030020A8030020034B01224FF4A07123
:10068000F0201A70FFF7D6BF803C0020F7B5394D37
:100690002B6804461B6982209847208000284FD091
:1006A0002B680DF106025B6901A982209847324B45
:1006B000BDF806201B78002B4AD040F674639A429E
:1006C00040D9ADF80630BDF806209B1A9AB20A2A26
:1006D00042D90B23B2FBF3F2284B1B889A4201D973
:1006E000013B9AB2BDF80430254840F6B8318B4240
:1006F00034D8C3F571630E3301689BB20F25B3FB89
:10070000F5F3204D2D88AB4284BF05F1FF35ABB228
:100710008B421D468EB22AD99B1B99B21A4F3E6856
:10072000B3B2B2428CBFD31A9B1A9BB219440529AB
:10073000C8BF05600368C4BF3A6016466380A680E0
:1007400003B0F0BDB32A9CBFB422ADF80620BAE7CF
:10075000A2F5B47292B2BAE70022C3E7C3F56D63A3
:1007600008339BB20E2B0168C8D800252B46C91A46
:1007700089B2D3E7A8030020803C0020A403002016
:10078000A0030020A60300209C03002037B5684684
:100790000D461446FFF77AFFBDF8000030B1BDF8F2
:1007A00002302B60BDF804302360012003B030BD5F
:1007B000032821D8DFE800F0020B12190F4B1A684A
:1007C000B2FA82F2520904210D4804F05BBC0B4BD3
:1007D0005A68B2FA82F252090821F5E7074B9A6883
:1007E000B2FA82F252091021EEE7044BDA68B2FA4B
:1007F00082F252092021E7E7704700BFAC030020D6
:1008000000100240032821D8DFE800F0020B121983
:100810000F4B1A68003A18BF012204210D4804F05A
:1008200031BC0B4B5A68003A18BF01220821F5E78A
:10083000074B9A68003A18BF01221021EEE7044BDB
:10084000DA68003A18BF01222021E7E7704700BFAD
:10085000AC0300200010024003280DD8DFE800F0B0
:100860000206080A0421054804F011BC0821FAE731
:100870001021F8E72021F6E7704700BF0010024082
:1008800008B5032811D8DFE800F0020A0C0E042195
:10089000074804F0F1FB431E5842584108BD0821A7
:1008A000F6E71021F4E72021F2E70020F3E700BF8C
:1008B0000010024070B5084D00240126E0B2FFF799
:1008C000DFFF18B12B68012B18BF2E600134052CF7
:1008D00005F10405F2D170BDAC030020012380F8BE
:1008E0007C1080F87D307047704700207047000012
:1008F000034B8164003918BF01211970704700BF94
:10090000BB4C0120704700207047C36B0BB10846F9
:10091000184770474FF6FF707047406803689B693F
:1009200018477047704770477047704710B50446C6
:1009300000F060FD23680349D3F890302046BDE8FD
:1009400010401847000000D008B503680446D3F8EB
:100950008430984723682046DB6F984700F008F9F9
:10096000236820465B6F9847292001F09BF900F02F
:10097000FFF8236820465B6F9847F8E710B50446F8
:1009800009F0F0FC23682046D3F8BC30BDE81040E5
:10099000184700F013BD00F017BD00F049BD00F08E
:1009A000E9BC00F059BD00F061BD00F0EDBC08F0FD
:1009B000CCBE10B58821044621F01FF9204610BD99
:1009C00010B590F8381090F87C400C4B8C421A7897
:1009D00009D03AB90A4A0B491488088810800C805B
:1009E00001221A7010BD002AFCD0054A054914885E
:1009F000088810800C800022F3E700BFBA4C012069
:100A0000C44C0120C24C012008B5094B1B888B4205
:100A100003D8084B1B88934205D9074B074A08485F
:100A2000A52122F015F9074B1980074B1A8008BD44
:100A3000C44C0120C24C0120D83E02083B3F0208B2
:100A40007E3F0208C04C0120BE4C01202DE9F04140
:100A50000D460446194635B9154B164A164840F25C
:100A6000013122F0F5F8C0E910520368134ED3F8B3
:100A70009030003A18BF012232709847E569A5B15D
:100A80002B681F68337873B1236820465B6B9847E7
:100A9000236C834207D1616C094B28461A883B4678
:100AA000BDE8F0411847216CF6E7BDE8F08100BFD2
:100AB000C33F0208FB3F02087E3F0208BC4C0120F6
:100AC000C04C0120034690F87E0018B158680368B6
:100AD0001B68184770470000012108B5002208462E
:100AE00006F02AFB0A4B186028B90A4B0A4A28214B
:100AF0000A4822F0ADF800220421012006F0BAFBDA
:100B0000074B186018B9074B034A2C21F0E708BDC2
:100B1000C00300204940020892400208C140020878
:100B2000BC03002009410208024B4FF0FF31186856
:100B300006F04CBBC0030020014B186806F072BBE6
:100B4000C0030020024B0021186806F03FBB00BF25
:100B5000C0030020FFF7F0BF0348044900680023EA
:100B60001A4606F0C2BB00BFBC03002004000020F0
:100B700013B5084C00231A4601A9206806F0E6FBCD
:100B800020684FF0FF33002201A906F0DFFB02B01E
:100B900010BD00BFBC03002003685B6C1847012038
:100BA000704703689B6A1847FEE740F2EF307047D2
:100BB000054B0360054B4FF08062C3F88820BFF3FC
:100BC0004F8FBFF36F8F7047744D020800E100E054
:100BD00010B504464FF45A61FFF7EAFF204621F0B2
:100BE0000CF8204610BD000082B0002301930E4B8C
:100BF0001A6B42F400021A631A6B02F400020192AB
:100C0000019A1A6942F400021A611A6922F4000278
:100C10001A61064B064A5A61064A1A61064B4FF0A2
:100C200080629A6002B0704700380240143E002093
:100C3000A90B0008710E000800E100E008B50A28C1
:100C400009D8DFE800F006100E0808080810101098
:100C50001000022008BD054B054A0648912121F0ED
:100C6000F7FF0020F6E70120F4E700BF4B41020840
:100C700066410208B141020870B50C46887FFFF753
:100C8000DDFFA58AE28A114B2169586342EA0542D9
:100C90005A64628BD963521B1A642668E568082E71
:100CA0000DD19A611A615862207F094A42EA0062B6
:100CB000DA61084A1D625961D9601A6070BD00226C
:100CC000D8611A61044A9D63F7E700BF00B0024093
:100CD00009000100012302000123030008B50B28CD
:100CE0000BD8DFE800F00612100A0A0A0A08080802
:100CF0000808022008BD0520FCE7054B054A064808
:100D0000702121F0A5FF0020F4E70120F2E700BFE9
:100D10004B410208F7410208B14102082DE9F041B8
:100D200091F81D800C464046FFF7D8FFA77F054687
:100D30003846FFF7D3FF06463846FFF77FFFA18A04
:100D4000628B454B521A1A649A61228B521A1A61AD
:100D5000E28A586342EA01425A6421696268D963AF
:100D6000DA60D4F800C0207FBCF1800F4FEA006247
:100D700029D013D8BCF1200F45EA020064D0BCF1A1
:100D8000400F61D0BCF1040F5ED0334B154345F4E6
:100D90000035B845DD615BD0304A40E0BCF5807F6E
:100DA00007D0BCF5007FF0D142F4003242F00902D6
:100DB00003E042F4003242F00A02DA61E2681A62A9
:100DC0005E6259612AE0A4682A4342F40032271D7A
:100DD000DF62DA6122785E62596142B1012A21D074
:100DE0001F4B204A204840F21B1121F031FFDA69E5
:100DF000618822F47F42013922F0100242EA012286
:100E0000DA610121144BDA6942F02002DA61DA6911
:100E10009206FCD410229A600029BDD0134A1A60B1
:100E2000BDE8F081DA69B0F1FF01608822F47F4209
:100E300000F1FF3022F0100242EA002242F01002DC
:100E400018BF0121DA61DDE740F40030D861B7E76F
:100E500042F20132E3E700BF00B00240012301008B
:100E6000414202085B420208B1410208012302002C
:100E7000024B1B68586803685B691847C84C01201F
:100E800070B5044625460A4B0C3000266060267279
:100E9000667245F8203B6022294609F0CDFB04F537
:100EA0005A63EE6024359D42FBD1204670BD00BFE1
:100EB000744D0208034B1A68D207FCD423229A60AF
:100EC000704700BF00B002407047000030B50F4CC3
:100ED0002568ED07FCD423250904A56041F0010134
:100EE0000225FF2B65636164E0630AD008496562EF
:100EF00041EA0363E361074B22626061E0602360C3
:100F000030BDE561039BA363034BF8E700B00240EB
:100F100009000100010002000100030030B50E4C81
:100F20002568ED07FCD423251204A56042F00102D8
:100F30000225FF2B65636264E063E16008D01B0655
:100F400043F00213E361054B65626061236030BDCD
:100F5000034BE3610123F9E700B002400100020006
:100F6000020002FF30B50B4C2568ED07FCD42325A9
:100F700012041B06A56043F40033022542F001026F
:100F800065636264E063E160E361034B6562606135
:100F9000236030BD00B00240010002000120704714
:100FA0001020704700EB01100830704700EB011073
:100FB000083070470120704742F26870704742F273
:100FC000687303FB01000830704742F2687303FB4B
:100FD000010008307047012070471020704700EB77
:100FE00001100830704700EB0110083070470846C8
:100FF00001F022BD10B5034B0360044608F0F7F87A
:10100000204610BD2C4E020810B50446FFF7F2FF33
:101010002046182120F0F1FD204610BD10B5034BED
:101020000360044608F0E3F8204610BDF84D0208BE
:1010300010B50446FFF7F2FF204642F2707120F02F
:10104000DCFD204610BD000010B5034B03600446D4
:1010500008F0CDF8204610BDC44D020810B5044676
:10106000FFF7F2FF2046182120F0C7FD204610BDF3
:1010700010B5094B0360044600F51E501C30FFF705
:10108000B9FF04F12C00FFF7C9FF04F11400FFF7CA
:10109000DBFF204610BD00BF604E020808B50248C5
:1010A000FFF7E6FF08BD00BFA012002010B5044600
:1010B000FFF7DEFF204642F6181120F09EFD204685
:1010C00010BD0000F7B501F04DF9054601F04EF9ED
:1010D00000240146009423462246284611F02AFDAA
:1010E000294B2A4A1A60204602F0BEFB284B294AA7
:1010F00029489A6011F084FC284C2368BFF35B8F69
:10110000DB073AD4204620F07AFD002835D0244A67
:10111000244E254B136002F12C0702F1140006F156
:10112000200597605060D660156108F061F81F4B8C
:1011300047F8183C384608F05BF8A7F12C02174630
:101140001B4BD362304608F053F807F5005303F207
:10115000B470184AC3F89C2702F00AFC3A4606F11C
:101160001801284602F0FAFB284601F065FC1248F7
:1011700021F08CFD204620F04EFD104803B0BDE864
:10118000F040FFF7D3BB00BF244D01204C040020EA
:101190006C04002050040020080000209C12002055
:1011A000A01200203C3A0020604E0208C44D020804
:1011B000F84D02082C4E02089D100008C4030020C0
:1011C000704700000148FFF7BFBB00BFC403002009
:1011D00070B5274E274C284D284B23603046FFF72B
:1011E0004FFE284616F02AFF25480FF03BFA254B04
:1011F0002548DC6000224FF48071C3E913122349B3
:101200001A63C3E91B1222499A86C3E91F012149C7
:10121000C3F884102049214883F85C20C3E90422E4
:10122000C3E90622C3E90822C3E90A22C3E90F225F
:10123000C3E91122C3E91522C3E918229A6683F88B
:1012400074209A67C3E901650B60F021018014489E
:10125000018014484FF4A0710180134801801349A4
:101260000A70012283F83820114A1A6070BD00BF4D
:10127000F8040020981200206C040020C83E0208E8
:1012800050040020C40300200000010101000001FF
:10129000000450001A001400C84C0120C44C012066
:1012A000C04C0120C24C0120BE4C0120BA4C012090
:1012B000884C02080148FFF77BBC00BFF8040020FF
:1012C0000020704781807047C1807047018170475E
:1012D000418170477047704770477047704710B43E
:1012E000C4880368121B84885B6D091B12B25DF809
:1012F000044B09B218474FF6FF7383814FF0FF3359
:1013000003621368C36110607047002070478B88C8
:10131000838001207047704780F82610704790F84E
:101320002600704710B50022B1F90840B1F90A1043
:10133000028042808480C18010BD002202804280F1
:101340008280C28070470177704780ED080A70473D
:1013500080F82410704780F82510704701207047EE
:10136000983070478C3070478430704770477047B2
:1013700070470000034B902283F85A2383F85823C8
:10138000704700BF00E100E0094A0A49D3680A48F3
:10139000C3F30A03013B9BB20B801169C1F30A013D
:1013A000013901801364536B43F0010353637047A9
:1013B00000680140BA3B0020B83B0020014BD3F845
:1013C000AC00704700680140024B0122C3F8AC102A
:1013D0005A6270470068014010B52C21044620F085
:1013E0000CFC204610BD10B5BC21044620F005FCC5
:1013F000204610BD70B5044608F0FDF923689D6EC7
:101400000DF0ECFE01462046A8472368054AD3F8B4
:101410008C502046AC460023BDE87040A2F5163142
:10142000604700BF00B004D008F0CCB908F0D6B9CE
:1014300008F091B908F0FDBA90F8252012B10368C0
:101440005B691847704790F825201AB190F824205E
:1014500002B1186070470000034B4FF080629A6041
:101460004FF080729A60704700E100E0084B4FF047
:101470008062C3F88820BFF34F8FBFF36F8F4FF0A8
:101480008072C3F88820BFF34F8FBFF36F8F704710
:1014900000E100E070B50023124E8380124B036020
:1014A000336893F85C2005460AB1186D00B9986856
:1014B00003681B6B98473368B0FA80F4186D6409B1
:1014C00030B103681B6B9847002808BF44F0010443
:1014D0002CB9064B064A07482C2121F0B9FB2846B7
:1014E00070BD00BFC84C0120744E0208994202082A
:1014F000F74202083043020870B5254E3568BFF345
:101500005B8F15F0010540D1304620F078FB0028B4
:101510003BD0204C204B256104F13400C4E9003558
:10152000C4E90255E584A562A5850FF082FB04F1AC
:1015300058000AF03FFD194BA3652046184B40F8B0
:10154000843BFFF7A7FF174BC4F884302433C4F85B
:101550008C304FF4C803C4E928350023C4F8AC30FC
:10156000C4F8B030C4F8B430C4F8B8300E480F4BEB
:10157000C4F89050C4F89C50C4F8A850C4F89830EF
:1015800021F084FB304620F046FB024870BD00BFCE
:10159000BC3B0020C03B0020FC560208944E0208D1
:1015A0000C4F0208B056020871130008905602084A
:1015B00038B5184C23685BB3174B184A1B6C11885D
:1015C0008B4216D1164B198804F050FB236893F810
:1015D0006E200025013283F86E2083F88050FFF7DB
:1015E000BBFA206808F0BEFE2846BDE83840FFF789
:1015F000DFB804F03BFB2468236820461B6A984749
:10160000012384F880300020BDE83840FFF7FAB8A5
:1016100038BD00BFC84C012000680140BA3B002023
:10162000B83B002007B5064BADF806001B6805481F
:1016300001220DF1060105F0B9F803B000BD00BFAD
:101640000C000020C03C002008B519484FF4805120
:1016500003F012FD28B9012002F094F9962005F05C
:101660005FFD13484FF4005103F006FD28B9022036
:1016700002F088F9962005F053FD0E48042103F08E
:10168000FBFC28B9032002F07DF9C82005F048FDD5
:101690000848082103F0F0FC28B9042002F072F990
:1016A000502005F03DFD142005F03AFDCDE700BFC8
:1016B000000402400018024030B595B0102200210D
:1016C0000AA821F03BFD1422002103A821F036FDD9
:1016D00000241E4B01941A6C42F080521A641B6C59
:1016E00003F080530193019B194B02941A6842F452
:1016F00040421A601B6803F4404302930122029B9C
:101700004FF48033CDE9082302254FF480030821EC
:10171000CDE90E534FF4B473CDE9101308A8042398
:101720001393129504F0FAFA04F0BEFA0F23CDE9F0
:1017300003354FF4A0504FF48053CDE90603052143
:1017400003A8059404F0C6FC15B030BD0038024073
:101750000070004080B59AB003F046F8FFF7ACFF88
:10176000142200210DA821F0E9FC0024BF4B0094B5
:101770001A6BBF4842F010021A631A6B02F0100293
:101780000092009A01941A6B42F020021A631A6BBD
:1017900002F020020192019A02941A6B42F0800238
:1017A0001A631A6B02F080020292029A03941A6B77
:1017B00042F004021A631A6B02F004020392039AC5
:1017C00004941A6B42F001021A631A6B02F00102D0
:1017D0000492049A05941A6B42F002021A631A6B7F
:1017E00002F002020592059A06941A6B42F040023A
:1017F0001A631A6B02F040020692069A07941A6B5B
:1018000042F008021A631B6B03F008032246079399
:101810003C21079B03F036FC96480122022103F08D
:1018200031FC22469348042103F02CFC22469248C6
:10183000022103F027FC224690484FF4405103F068
:1018400021FC22468E484FF4005103F01BFC012579
:101850003C23CDE90D3586480F9403230DA90226BC
:10186000109303F025FB83480DA9CDE90D65CDE963
:101870000F4403F01DFB04237E480DA9CDE90D356F
:10188000CDE90F4603F014FB7B480DA9CDE90D65AA
:10189000CDE90F4403F00CFB4FF4704379480F95EA
:1018A0000DA9CDE90D3403F003FB4FF44053734809
:1018B0000DA9CDE90D35CDE90F4603F0F9FA0C235A
:1018C0006F480F950DA9CDE90D3403F0F1FA0DA97C
:1018D0004FF400536A48CDE90D35CDE90F4403F0CC
:1018E000E7FA694A694B1360104603F00FF8684A3B
:1018F000684B1360684BD460C2E9013410464FF462
:101900008043C2E90434C2E90644146203F0D4FD02
:1019100010215F4804F016F821465D4804F031F8C4
:101920005E4A5F4B13604FF482734FF4007EC2E94E
:1019300001341823C2E906E310460A23C2E903442E
:10194000C2E9084454619462D36204F0D3FE8F2349
:101950002246314647488DF824308DF8344003F054
:1019600091FB2A464FF47A7309A94C4804F01EFFF4
:101970004FF47A732A460DA9484805F0C3F82A4661
:1019800031463C4803F07EFB9DF83430454AD32B6A
:1019900004BF454B1D70454B13604FF004081023E6
:1019A000C2E9038340214FF4C0730024C2E9051348
:1019B0004FF40063C2E908344FF4005301250226B6
:1019C00093624FF0030907230DA91046CDE90D637B
:1019D000CDE90F830827C2E90154D461CDE91196FE
:1019E000139604F06BFD4FF6FF7209A92D48089479
:1019F000CDE90A7509950C9404F080FD284602F0A3
:101A00001FFF4FF6FF7209A92648CDE90967CDE906
:101A10000B5404F073FD4FF6FF7209A92148CDE97C
:101A20000997CDE90B8404F069FD4FF40C7308931A
:101A3000089B1C480C934FF6FF7209A9CDE9098752
:101A40000B9504F05BFD40F26A51164804F074FDFA
:101A5000342221460DEB020021F070FB144A154B95
:101A60001461C2E90034092326E000BF00380240B7
:101A7000001002400008024000000240000C02403A
:101A80000018024000040240543E00200030024092
:101A9000C03D0020005C0040A0860100C03C00204A
:101AA000005001408C3C0020803C0020400100A000
:101AB000183D002000680140C2E905351D23C2E938
:101AC000073940F20D1040F24313C2E9090340F216
:101AD000171740F247131046C2E90B73C2E90244DC
:101AE000948682F8364003F0DFFFFF214FF4806CCC
:101AF000F022CDE912140521CDE914C14FF4A073F1
:101B00000DA9CDE90E24CDE916422048204F1893A7
:101B10002246CDE910360D94ADF864408DF866404C
:101B200004F076F81B4B3B601B6898473B68DB680A
:101B30009847194A194B1046C2E90034C2E90264B9
:101B4000C2E90A46C2E90C4402F0F0FE29461248F6
:101B500002F0A2FFFEF75CFDFEF759FD02F06AFEFF
:101B600021F058F905F06CFA0D4A0E48214605F0AF
:101B700093FA0D4B0D4A186021460D4805F08CFA7A
:101B80000C4B186005F06EFAFEE700BF183D002010
:101B90007C3C002014000020143E002000B00240D5
:101BA000744F020849160008883C0020504F020874
:101BB0001F060008843C0020704770477FB5084B23
:101BC0008DF817201B6802930DF117020123009274
:101BD00001930A460146034803F016FD07B000BD15
:101BE00010000020C03D00207FB500238DF8173085
:101BF000084B1B6802930A4601230DF1170100915F
:101C000001930146044803F08FFD9DF8170007B0CB
:101C100000BD00BF10000020C03D00201FB5084CD3
:101C200024680092CDE901340A46012301460548A3
:101C300003F07AFD003818BF012004B010BD00BFCA
:101C400010000020C03D002002F0FABD08B5064893
:101C50000022042103F016FABDE8084002480122E0
:101C6000042103F00FBA00BF0008024010B50122A2
:101C700004464FF40051094803F004FA00220421FD
:101C8000074803F0FFF92046FFF7CCFCBDE8104001
:101C900003480122042103F0F5B900BF000C024003
:101CA0000008024010B5002204464FF400510948D4
:101CB00003F0E8F900220421074803F0E3F9204685
:101CC000FFF7B0FCBDE8104003480122042103F0F7
:101CD000D9B900BF000C02400008024037B50546E4
:101CE0000C4612480022042103F0CCF900224FF4E4
:101CF00000510F4803F0C6F92846FFF793FC0D4B3F
:101D00000D481B68224601A904F0FCFE0848019C0E
:101D100001224FF4005103F0B5F9044801220421D7
:101D200003F0B0F9204603B030BD00BF0008024008
:101D3000000C02400C000020C03C002002F080BDDE
:101D40000268034B9A4201D102F068BD704700BFA0
:101D5000001000407047000082B00E4B002200923D
:101D6000596C41F480415964596C01F480410091EF
:101D700000990192196C41F0805119641B6C03F0B9
:101D800080530193019B0F216FF0010002B002F01C
:101D90007DBD00BF003802400268094B9A4282B004
:101DA0000BD100230193074B1A6B42F480521A6344
:101DB0001B6B03F480530193019B02B0704700BF7B
:101DC000003002400038024007B50E4B02689A42CC
:101DD00016D10022A3F5F0430192196B41F40001E2
:101DE00019631B6B03F40003019305215A20019B27
:101DF00002F04CFD5A2003B05DF804EB02F078BD10
:101E000003B000BD00B002402DE9F043044689B0A4
:101E10001422002103A821F091F92268244B9A4250
:101E200043D1244C244800250095236B43F0040340
:101E30002363236B03F004030093009B0195236B42
:101E400043F001032363236B03F001030193019B20
:101E50004FF012094FF400734FF0010803270426D6
:101E600003A9CDE90339CDE90587079603F020F8EA
:101E70004FF480731148079603A9CDE90339CDE9E2
:101E8000058703F015F80295236C43F400032364DF
:101E9000236C03F400030293029B236A43F40003C0
:101EA0002362236A23F40003236209B0BDE8F083B0
:101EB000005C004000380240000802400000024080
:101EC000F0B599B004461422002107A821F036F994
:101ED00030220DEB0200002121F030F922685E4B28
:101EE0009A4240F0B78008230C93C0231093042338
:101EF00012930CA84FF40033159304F0B3F908B112
:101F0000FFF728FF554B5648002400945A6C42F0C6
:101F100080625A645A6C02F080620092009A0194C6
:101F20001A6B42F020021A631A6B02F0200201922F
:101F3000019A02941A6B42F001021A631A6B02F0C2
:101F400001020292029A03941A6B42F002021A638F
:101F50001A6B02F002020392039A04941A6B42F085
:101F600040021A631A6B02F040020492049A05942C
:101F70001A6B42F004021A631A6B02F00402059213
:101F8000059A06941A6B42F008021A631B6B03F061
:101F90000803069302250E26069B0B964FF48063DA
:101FA00007A9CDE90735CDE9094502F081FF41F6E2
:101FB00058032C480B9607A9CDE907350927CDE929
:101FC000094502F075FF032327480B9707A9CDE9C0
:101FD0000735CDE9094502F06BFF4FF470632248E5
:101FE0000B9607A9CDE90735CDE9094502F060FF59
:101FF0004FF40C631D480B9607A9CDE90735CDE9D1
:10200000094502F055FFC02319480B9607A9CDE9F1
:102010000735CDE9094502F04BFF082315480B961B
:1020200007A9CDE90735CDE9094502F041FF4FF495
:10203000A0530E480B9707A9CDE90735CDE909450F
:1020400002F036FF58202246052102F01FFC5820DE
:1020500002F04EFC19B0F0BD0068014000380240AB
:102060000014024000000240000402400018024038
:1020700000080240000C024010B5044688B014224B
:10208000002103A821F05AF82268144B9A4223D168
:1020900003F56843002101915A6C114842F4801203
:1020A0005A645A6C02F480120192019A02911A6BDE
:1020B00042F020021A631B6B03F020030293029B81
:1020C0004FF4607202230321CDE903230523CDE9F8
:1020D000061303A902F0ECFE08B010BD0050014049
:1020E000001402402DE9F04186B0002303932B4BEE
:1020F0001C68002C4FD14FF00108C3F80080284B1A
:1021000000949A6B274842EA08029A639B6B03EAA1
:1021100008030093022703260C25009B01A94FF614
:102120003F03CDE90137CDE9046502F0C1FE1E4849
:10213000059501A9CDE90187CDE9034602F0B8FE76
:1021400048F233131948059501A9CDE90137CDE9C6
:10215000034602F0ADFE4FF683731548059501A9BD
:10216000CDE90137CDE9034602F0A2FE4CF203733C
:102170001048059501A9CDE90137CDE9034602F0E4
:1021800097FE60230C48059501A9CDE90137CDE9FB
:10219000034602F08DFE06B0BDE8F0815C3E0020F3
:1021A00000380240001402400008024000180240BB
:1021B00000100240000C02400004024030B589B01B
:1021C00000230293204B1A6C42F010021A641B6C1D
:1021D00003F010030293054601A903A8029B04F033
:1021E00023F8069B4BBB04F00FF8184A184B1360FA
:1021F00040F2E733D360174BB0FBF3F3013B53607E
:102200001046002313619360936104F045FE044679
:1022100080B90E4804F01AFD044658B9362002F081
:1022200067FB0F2D0DD822462946362002F02EFBE3
:10223000094B1D60204609B030BD03F0E5FF4000AA
:10224000D3E70124F6E700BF00380240603E0020DB
:102250000010004040420F007C0000207047FEE765
:10226000FEE7FEE7FEE77047014804F02DBD00BF22
:10227000603E0020014803F06EBC00BF183D002006
:10228000014802F07FBB00BF143E002001207047D0
:1022900008B520F0B1FF162303604FF0FF3008BDF2
:1022A00008B520F0A9FF16230360FEE770B50D46C0
:1022B00014460E46731B9C4201DC204670BDAFF3F2
:1022C000008006F8010BF5E770B50D4614460E4682
:1022D000731B9C4201DC204670BD16F8010BAFF366
:1022E0000080F5E74FF0FF3070474FF400534B602C
:1022F000002070470120704700207047094A08B548
:102300000346106808B908481060034469468B42C8
:1023100006D920F071FF0C2303604FF0FF3008BD99
:102320001360FCE7A83E0020005A0120704710B55A
:10233000042104461FF061FC204610BD012908B5A8
:1023400006D0022908D059B901F0DAFA006808BDB0
:1023500001F0D6FA4068FAE701F0D2FA8068F6E7B1
:102360000020F4E700487047AC4F02081220704785
:1023700013B5002451B1036801948DF8034001AAFC
:102380009C680DF10303A04702B010BD0846FBE7AF
:10239000C0897047008A7047C0887047808870473E
:1023A000807A00F07F007047807AC0097047002073
:1023B000704700009FED010A704700BF0000000059
:1023C000704710B5082104461FF017FC204610BDC9
:1023D0007047704700F598730868496803C37047F1
:1023E000704770474160704770477047064BC0F8B0
:1023F0004C310023C0F8503100F5A273C0F84801F9
:10240000C0F84031704700BF7128000801230372F3
:1024100070477047704738B5054640680368DB6908
:102420009847044604B938BDA188AB89C91A236806
:1024300020461B6B09B29847A469F3E7D0E9023242
:10244000416810B4541001EB6200D20748BF0A592A
:102450005DF8044B48BFD35818470346406830B175
:102460009A681AB9D86800F00100704701207047D7
:1024700010B50C2104461FF0C0FB204610BD10B55E
:10248000102104461FF0B9FB204610BD10B51021E5
:1024900004461FF0B2FB204610BD10B54FF4AE71DC
:1024A00004461FF0AAFB204610BD10B50CF096FEA6
:1024B0000368BDE81040DB6B184710B50CF08EFECA
:1024C0000368BDE810405B6B1847000037B5054650
:1024D000807A6B7A0130C0B29842A87205D9012384
:1024E0002B720023AB7203B030BDB5F90C20B5F9E7
:1024F0000E4000210EF0EFFFC30706D500284FF66F
:10250000FF73C8BF0123184400B2AB7AE881041BF3
:10251000012BA4B206D1174B1B781BB10CF05EFE49
:102520000CF062FE144A00231288ADF80230EB89E9
:102530001A445B42ADF80430104BADF800201B8804
:10254000ADF806300CF04AFE036802AA12E9060054
:102550001B6C984768680368DB6998470546002D3F
:10256000C1D0A9882B68214428461B6B09B2984723
:10257000AD69F4E7BC4C0120C44C0120C24C0120E1
:1025800010B50446D0F8400158B10368DB6898479D
:1025900038B1D4F8400103689B6898470023C4F819
:1025A000403110BD2DE9F14FD0E955BA0746DBF8AF
:1025B000080003681B6A984742F26773984205D87F
:1025C000494B4A4AA3214A4820F042FBDBF8040069
:1025D00003681B6A98470F2803D8464B434AA42137
:1025E000F1E7DBF80C0003681B6A98470F2803D853
:1025F000414B3E4AA521E6E70CF0F0FDDFF80491DF
:1026000004300CF036FED9F8000010B10368DB6826
:102610009847D9F8000010B103681B689847DFF8A5
:10262000E880D8F8000010B103685B699847D7F8D4
:102630003C0110B103685B689847D8F8000010B1FE
:1026400003681B689847D7F83C0110B103689B6882
:102650009847DBF80C00036800215B6A9847274B1A
:10266000036014234372264B1B88002686725B424C
:10267000044646600672C6818381DBF80800036861
:1026800031465B6A9847054601F094FADBF804008E
:10269000036831465B6A98472946064601F0FCF913
:1026A000331DC7F83C61CAF804302B68C6F808A08F
:1026B0002846DB68C9F80040C8F80050EE63984728
:1026C000336830461B689847214628460EF0FDFEC9
:1026D000236820461B69984723685B69204601B040
:1026E000BDE8F04F184700BFA74302083544020871
:1026F0001A4502086145020804460208BC51020856
:10270000C44C0120104D0120144D01202DE9F14F42
:10271000D0E955BA0746DBF8080003681B6A9847FA
:10272000EF2805D8494B4A4AA3214A4820F090FA9D
:10273000DBF8040003681B6A98470F2803D8464B50
:10274000434AA421F1E7DBF80C0003681B6A9847B1
:102750000F2803D8414B3E4AA521E6E70CF03EFD89
:10276000DFF8049104300CF084FDD9F8000010B1BA
:102770000368DB689847D9F8000010B103681B684C
:102780009847DFF8E880D8F8000010B103685B696B
:102790009847D7F83C0110B103685B689847D8F8B0
:1027A000000010B103681B689847D7F83C0110B1CE
:1027B00003689B689847DBF80C00036800215B6A9C
:1027C0009847274B036014234372264B1B8800262F
:1027D00086725B42044646600672C6818381DBF8DE
:1027E0000800036831465B6A9847054601F016F910
:1027F000DBF80400036831465B6A984729460646C1
:1028000001F0ECF8331DC7F83C61CAF804302B68BE
:10281000C6F808A02846DB68C9F80040C8F8005090
:10282000EE639847336830461B6898472146284630
:102830000EF04BFE236820461B69984723685B69AE
:10284000204601B0BDE8F04F184700BFA74302087B
:10285000A74602081A450208614502080446020814
:10286000BC510208C44C0120104D0120144D012020
:102870002DE9F14FD0E9556A0746B06803681B6A35
:102880009847EF2805D8444B444AA321444820F0F8
:10289000DFF9706803681B6A98470F2803D8414B1B
:1028A0003E4AA421F2E7F06803681B6A98470B28A8
:1028B00003D83D4B394AA521E8E70CF08FFCDFF83F
:1028C000F09004300CF0D5FCD9F8000010B103688A
:1028D000DB689847D9F8000010B103681B68984777
:1028E000DFF8D080D8F8000010B103685B69984722
:1028F000D7F83C0110B103685B689847D8F800002E
:1029000010B103681B689847D7F83C0110B1036801
:102910009B689847F068036800215B6A98474FF00E
:10292000000B224BC0F804B0044680F808B00360E6
:10293000B068036859465B6A9847054601F06EF82F
:102940007068036859465B6A98472946064601F055
:1029500045F8331DC7F83C61CAF804302B68C6F847
:1029600008A02846DB68C9F80040C8F80050EE63AC
:102970009847336830461B689847214628460EF032
:10298000A4FD236820461B69984723685B6920469D
:1029900001B0BDE8F04F1847A74302088C47020872
:1029A0001A450208614502080446020898510208C7
:1029B000104D0120144D0120044B1B6893F85C203E
:1029C0000AB1186D00B99868704700BFC84C012063
:1029D000F8B5174604460E460CF0ECFC124B1C6092
:1029E000124B2360124B0025C4E95135114BC4E949
:1029F00053551868036801219B68C4E94F55C4E921
:102A000055769847284600F02FFFFFF7D5FF17F0BF
:102A1000C4F9FFF7D1FF17F03BFAFFF7CDFF17F02E
:102A200043FA2046F8BD00BF184D0120445102086A
:102A30002C510208C84C0120064BC0F84C31002331
:102A4000C0F8503100F5A273C0F84801C0F8403119
:102A5000704700BF71280008064BC0F84C310023B6
:102A6000C0F8503100F5A273C0F84801C0F84031F9
:102A7000704700BF0D270008064BC0F84C310023FB
:102A8000C0F8503100F5A273C0F84801C0F84031D9
:102A9000704700BFA5250008406A7047806A7047EC
:102AA00070478A880B8810B5D20A4C88C1699BB2DE
:102AB00051F8220043EA0443184410BD10B50446FF
:102AC000BAB1107B68B1537BD27A1B0203F4E06386
:102AD0001A43236A03EB82031A888A4202D193F9CC
:102AE000020010BD05D8013880B204330028F3D1AC
:102AF000F7E70020F5E710B52C2104461FF07DF81C
:102B0000204610BD30B58BB00446BDF86050089526
:102B1000BDF85C5007959DF8505006959DF84C50B7
:102B200005959DF8485004959DF8445003959DF8EF
:102B3000405002959DF83C500195BDF838500095E5
:102B40000EF034F9064B2360159BE361169B23625C
:102B5000199B63621A9BA36220460BB030BD00BF75
:102B6000E0510208704770477047704770477047E0
:102B700070477047D0E9023230B44468551004EB16
:102B80006200D20748BF625930BC48BFD3581847CB
:102B90000346406830B19A681AB9D86800F001005D
:102BA00070470120704710B5102104461FF025F82A
:102BB000204610BD10B5F02104461FF01EF8204637
:102BC00010BD9830884208B505D10CF007FBBDE870
:102BD0000840FFF751BF08BD70B5036804461B6B82
:102BE000154698472368294620465B6BBDE8704030
:102BF00018470000F8B5194B018F1B888B42064619
:102C00002AD9174B1B682BB9164B174A17486C214A
:102C100020F01EF813F81120154B1B6853F82250B2
:102C2000144B186800F05CFE2B6807469B6B284627
:102C300098472B6804469B6C3946284698472B6872
:102C400014FB00F45B6A394628469847A4B223185F
:102C50001BB2A6F84630F8BD0023FAE71C4D012050
:102C6000284D01205E480208A0480208DB480208FF
:102C7000204D0120244D01202DE9F74304460EF09C
:102C800089FA444B2360444B23644FF48072FF2342
:102C9000002504F16C076266C4F8902084F8663061
:102CA0003E4AE2664FF6FF7304F19806A4F89230AC
:102CB00084F8943001A93846C4E91155C4E9135584
:102CC000C4E91555C4E91755C4E91C55C4E91E5596
:102CD000C4E92055C4E92255E563A566ADF8043082
:102CE00009F011FC304609F0A5FD2D4BC4E938343C
:102CF0002C4B04F140082A46C4E93A35294640469F
:102D0000FFF76AFF4046F021FEF7E0FA40464FF435
:102D1000A071FEF7DDFA04F104094FF07F43A366CA
:102D20004146484606F077FA2A4629463846FFF7D4
:102D300053FF022301A93846ADF8043009F0E3FB44
:102D40003946484606F067FA294630464FF48772FE
:102D5000FFF742FF01AA694601233046ADF804306F
:102D6000ADF8005009F0A7FA0723A4F8D030304698
:102D7000FFF740FF0C4BC4E9353304F1E00348464C
:102D8000C4F8C030314606F046FA204603B0BDE82C
:102D9000F08300BF60520208C0570208285802089A
:102DA00048520208C32B00080000FFFF806A7047EA
:102DB00030B5036885B0D3F88430018104460146FC
:102DC000684698479DE807003C3484E8070005B052
:102DD00030BD30B5036885B0D3F8843041810446F6
:102DE0000146684698479DE807003C3484E80700A0
:102DF00005B030BD0022028042808280C2807047D0
:102E000080F83610704770B5036804461B6B154692
:102E100098472368294620465B6EBDE870401847F6
:102E200000207047806C704770477047704770474C
:102E3000704770477047D0E9023230B4446855108B
:102E400004EB6200D20748BF625930BC48BFD35878
:102E500018470346406830B19A681AB9D86800F03C
:102E60000100704701207047D0E9023230B4446855
:102E7000551004EB6200D20748BF625930BC48BF0E
:102E8000D35818470346406830B19A681AB9D868D1
:102E900000F0010070470120704790F82D3080F855
:102EA000603070470146383091F82C3013B136311C
:102EB00009F029BB3431FBE710B5642104461EF04C
:102EC0009CFE204610BD10B54C2104461EF095FE18
:102ED000204610BD10B5102104461EF08EFE20467F
:102EE00010BD10B5102104461EF087FE204610BD0F
:102EF00010B54FF46E7104461EF07FFE204610BDE3
:102F000008B5FEF799FA08BD10B50446006B50B13C
:102F10000368DB68984730B1206B036821469B68E3
:102F2000BDE81040184710BD00F532728A4202D148
:102F30000368DB6A184770470B7970B590F82C600E
:102F400004460D460BB916B170BD002EFCD0B3FA85
:102F500083F35B0984F82C3023682046D3F88C3047
:102F60009847236820465B699847002EECD02B7960
:102F7000012BE9D123682046D3F88830BDE87040A2
:102F800018470000036870B55E6B124B1B6804465F
:102F90008DB22BB9104B114A6C2111481FF058FE0D
:102FA0001049828D0988914203D80F4B0B4A6D213D
:102FB000F3E713F812200D4B1B6853F82200036847
:102FC0001B6B9847291A3346204609B2BDE870406A
:102FD000184700BF284D01205E480208A04802089B
:102FE000DB4802081C4D012022490208204D012027
:102FF00000F5D070884208B505D10CF0EFF8BDE8B7
:103000000840FFF729BD08BD00224FF0FF31C0E99D
:103010000021826070470000074A02600022C0E978
:103020000122C0E90322C0E90522C0E907224FF4CA
:1030300080728284704700BF6C5902080B882DE9AA
:10304000F04183861388B0F90850C38604461046C1
:1030500090460FF085FDB4F90A30074603EBD373B1
:103060004046C3F34F060FF0AFFD05EBD575C5F332
:103070004F0500EBD07007EBD777A6EB6002A5EB0E
:10308000670104F1380012B209B2FFF7A5FD236809
:103090002046D3F88C30BDE8F041184770B504469F
:1030A0001D46BDF91060FFF797FD236829462046AD
:1030B0009B6B9847236831462046DB6BBDE8704028
:1030C0001847000038B5262204460D46002120F09E
:1030D00035F82046FFF7A0FF064B23602B88E384DA
:1030E000FF23204684F82830294609F00CFA2046B0
:1030F00038BD00BF2858020810B52622044600211A
:1031000020F01CF82046FFF787FF0A4BA3624FF61A
:10311000FF73A3854FF47F020023C4E90C32064AF3
:1031200022604FF0FF32C4E910232387E363A364D6
:10313000204610BD1C510208945202082DE9F04FA0
:1031400004468DB0274600250EF024F8C34BE563F6
:1031500047F8403B2622294638461FF0EFFF384605
:10316000FFF75AFFBE4B236404F16C0BFF2384F876
:1031700066304FF6FF7604F1980A0AA95846A5660C
:1031800004F1C409ADF82860FFF79CFF0AA9504676
:10319000ADF82860FFF796FF0AA94846ADF8286009
:1031A000FFF790FF0AA904F1F000ADF82860FFF7DF
:1031B00089FF0AA904F58E70ADF82860FFF782FF39
:1031C0000AA904F5A47004F5D078ADF82860FFF7DB
:1031D00079FF0AA904F5BA70ADF82860FFF772FF0D
:1031E0004046FFF719FF4FF47F43A4F8CC314FF06E
:1031F000010384F8C4319B4BC4F8A03104F5EC768C
:103200004FF0FF33C4F8D4310AA93046C4F8C8518E
:10321000C4F8D051ADF82830FFF754FF314640468E
:1032200005F0F9FF04F5017318460393FFF764FFF7
:1032300004F5147318460393FFF75EFF04F5277334
:1032400018460393FFF7E8FE874BC4F89C3204F559
:1032500032731846C4F8C452039309F0EBFA04F52C
:1032600044731846039309F0E5FA804BC4E9E63449
:103270007F4BC4E9E8357F4BC4E9EA347E4BC4E9AF
:10328000EC354FF4A0732A46384600932946F023C4
:10329000261DFFF703FF4FF07F43A36639463046F4
:1032A00005F0B9FF2A4658462946FFF795FC0B233F
:1032B00058460AA9ADF8283009F025F95946304694
:1032C00084F8915005F0A7FF2A4650215046FFF799
:1032D00083FC0C230AA95046ADF8283009F013F9F5
:1032E0005146304684F8BD5005F095FF2A464846C1
:1032F000A021FFF771FC0D2348460AA9ADF828303C
:1033000009F001F94946304684F8E95005F083FF99
:103310002A46282104F1F000FFF75EFC0E230AA9DB
:1033200004F1F000ADF8283009F0EDF804F1F001F7
:10333000304684F8155105F06EFF2A46782104F5D1
:103340008E70FFF749FC0F230AA904F58E70ADF8C3
:10335000283009F0D8F804F58E71304684F84151D0
:1033600005F059FF2A46142104F5A470FFF734FC38
:103370004FF010090AA904F5A470ADF8289009F0DF
:10338000C2F804F5A471304684F86D5105F043FF8E
:103390002A468D2104F5BA70FFF71EFC11230AA9F5
:1033A00004F5BA70ADF8283009F0ADF804F5BA713B
:1033B000304684F8995105F02EFF0A2340460AAAA8
:1033C00009A9ADF82430ADF82830FFF737FE04F531
:1033D0006673C4F8D031322303224046C4F8DC516E
:1033E000BE210093FFF75AFE4146304605F013FF19
:1033F00019232A4600932946642304F50170FFF738
:103400004DFE4FF0FF33C4F83432D4F80432A4F840
:1034100038520DEB0907D3F88430DFF870B004F5AB
:1034200001713846984797E8070004F5107383E860
:103430000700DBF8003004F556782BB90F4B104A23
:10344000602110481FF004FCDFF844A0BAF80030F7
:10345000022B1FD80C4B0A4A6121F2E7F4530208F1
:10346000C057020824530208D0550208C45302086A
:10347000F12F0008DC530208292F00085E480208DB
:1034800060490208DB48020822490208284D012051
:103490001C4D01205B4B0221186800F021FA5A4AAA
:1034A0000346494640460FF09EFA0523C4F84C8275
:1034B0000AA904F50170DFF85881ADF82C30CDF879
:1034C000288008F09BFE04F50171304605F0A3FE4C
:1034D0002D2300931C228C23294604F51470FFF73A
:1034E000DDFDD4F85032A4F884524FF0FF32384654
:1034F000D3F88430C4F8802204F51471984797E813
:10350000070004F5237383E80700DBF8003004F5B7
:103510005E77002B92D0BAF80030032B9AD9394B42
:103520000321186800F0DCF9374A0346494638465B
:103530000FF059FA0623C4F898720AA904F514701A
:10354000ADF82C30CDF8288008F058FE04F5147141
:10355000304605F060FEFA230093294604F52770F3
:103560002C22FFF79BFD294604F5327084F8C152E6
:103570008D22FFF731FB4FF001080AAA09A904F5D3
:103580003270224FADF82450ADF8288008F093FE39
:1035900004F53270A4F80053FFF72CFB04F56A73AE
:1035A000C4F8F03204F5327104F52770C4E9C1772C
:1035B00005F031FE294604F544705B22FFF70CFB51
:1035C0000AAA09A904F54470ADF82450ADF8288082
:1035D00008F071FE04F54470A4F84883FFF70AFB75
:1035E00004F5447104F52770C4E9D37705F013FEA0
:1035F000304604F5277105F00EFE20460DB0BDE8FB
:10360000F08F00BF244D0120AB4902080000FFFFEE
:103610001C5102087047000030B5164D8FB02C6861
:10362000BFF35B8F14F0010420D128461EF0E7FAA7
:10363000E0B13F230993104B0893104B10491148F8
:103640000A940122CDE906430423CDE903320A237B
:103650000093CDE90B44CDE901440594FFF752FAFC
:1036600009481FF013FB28461EF0D5FA05480FB095
:1036700030BD00BFAC3E0020786E0208DC6E020850
:10368000986C0208B03E0020153600087047000014
:1036900030B5164D8FB02C68BFF35B8F14F001046A
:1036A00021D128461EF0ABFAE8B13F230993104B15
:1036B0000893104B07930123CDE90543049304239A
:1036C000CDE9024314230C4900932022CDE90B4499
:1036D0000A480A940194FFF715FA09481FF0D6FA30
:1036E00028461EF098FA05480FB030BDDC3E002099
:1036F0007C6E0208E06E0208A86C0208E03E002022
:103700008D3600087047000030B5164D8FB02C681C
:10371000BFF35B8F14F0010420D128461EF06FFA2E
:10372000E0B13F230993104B0893104B1049114807
:103730000A940122CDE906430423CDE9033228236C
:103740000093CDE90B44CDE901440594FFF7DAF984
:1037500009481FF09BFA28461EF05DFA05480FB095
:1037600030BD00BF0C3F0020D86E0208E46E020896
:10377000686E0208103F00200537000800207047DF
:10378000002070470EB403B503AB002153F8042B9F
:1037900001930CF08FFD02B05DF804EB03B07047AD
:1037A0000CB407B504AB53F8042B01930CF082FD65
:1037B00003B05DF804EB02B070470000436C10B535
:1037C000044673B3038F2BB9184B194AC521194806
:1037D0001FF03EFAC38E00EB43035B8C0BB30EF07D
:1037E0009FFB238F012B03D8134B144ACB21EEE709
:1037F000E28E531C9BB2092B194688BFA3F10A0124
:1038000004EB410140F63F10498C814209D10A2B5B
:1038100004EB420228BF002304EB4303508C58847E
:1038200051842046BDE810400EF07DBAAE49020832
:10383000B7490208624A0208AC4A0208BA4A0208BA
:103840000EF039BA10B586B002AC84E806001A460C
:103850000AAB05930193099B00932146089B0BF04B
:1038600032F806B010BD000038B518BB124B134833
:103870001C681349B4B12268224402606268224481
:103880000A60A26814440F4B00221A8000F038F836
:10389000054600F033F80C4B1C600C4B1D600C4BC4
:1038A000188007E00B4B03600B4B0B600B4B1C6845
:1038B000002CE8D138BD00BF483F0020403F002029
:1038C0003C3F0020443F0020284D0120204D012096
:1038D0001C4D0120086F0208E86E020824540208FB
:1038E000044B1B6853F82100034B1B6803EB40009B
:1038F000704700BF3C3F0020403F00200820704739
:10390000004870474C3F002010B5FFF7C1FE044C43
:103910002060FFF7F9FE6060FFF77EFEA06010BD3B
:103920004C3F002010B5002404600C6014601C6043
:1039300010BD704710B54FF4AE7104461EF05DF92E
:10394000204610BD10B50446D0F8580100F018F814
:103950002046BDE810400BF0EDBC000010B5044659
:10396000FFF736F8014B2360204610BD30540208A3
:103970000022C0E90022014A10607047583F002031
:10398000704700000A4B1B688BB1013803280ED822
:10399000DFE800F00205080B01221A7070470122CF
:1039A0005A70704701229A7070470122DA7070478E
:1039B000583F002070477047704770477047704706
:1039C00004387047704710B5102104461EF015F9F1
:1039D000204610BDA0F10400F5E70000002282603F
:1039E000024A026018324260C16070478454020883
:1039F0007047000010B5034B03600446FFF7B8F8AA
:103A0000204610BDC054020810B50446FFF7F2FF6F
:103A10002046F0211EF0F1F8204610BD10B50446F6
:103A2000FFF72AF9014B2360204610BDC05402085D
:103A3000FFF79FB8704704387047704710B51021E2
:103A400004461EF0DAF8204610BDA0F10400F5E7A8
:103A5000C06800F073BAA0F10400FFF7F9BFC068B6
:103A600000F07EBAA0F10400FFF7F9BFC06800F0D3
:103A7000A0BAA0F10400FFF7F9BFC06800F082BA55
:103A8000A0F10400FFF7F9BFC06800F08EBAA0F102
:103A90000400FFF7F9BF000000228260024A0260C2
:103AA0002C324260C1607047F4540208806800B153
:103AB0000078704783680BB100221A7070478068E5
:103AC00000B14078704783680BB100225A7070478C
:103AD000806800B18078704783680BB100229A70CB
:103AE0007047806800B1C078704783680BB10022CE
:103AF000DA70704710B5034B03600446FFF799F97D
:103B0000204610BD4455020810B50446FFF7F2FFE9
:103B1000204642F268711EF070F8204610BD000089
:103B20004FF480714162084901600022FF21C0E921
:103B30000122C0E90322C0E90522C0E9072280F87A
:103B400026108262704700BFC0570208024B1868F7
:103B5000431C08BF0020704700000E0870B586B0F7
:103B60000546002401F05CF802260B220123694679
:103B700001A8CDE90323CDE90044059601F044F9FD
:103B800004492A462346304601F08EF801F05AF8DF
:103B900006B070BD00000E0808B50246FFF7D6FF5C
:103BA000D2F84035834204D91846BDE80840FFF7F3
:103BB000D5BF08BDF8B50446FFF7C0FA1B4B23601C
:103BC00004F56E7504F58D6628462C35FFF7A8FFC1
:103BD000B542F9D14FF0FF33C4F870340023C4F874
:103BE000743404F519562823C4F8783404F2445583
:103BF000043605F5047728462C35FFF791FFBD42C2
:103C0000F9D1B542F5D104F50055094E0949E02234
:103C100005F244601FF01DFB0FCE05F244750FC581
:103C200096E8070085E807002046F8BD44550208DD
:103C3000643E0208843D02082DE9F04100F51C565F
:103C400004462436054600F1B0077368D4F86C24A6
:103C5000D4F868141A4456F8083B194402EB82025F
:103C6000D5F8B83301EB810105F56E789200890033
:103C70009B6D12B209B240469847D5F8B83340461A
:103C80005B692C359847AF42DFD1BDE8F081F0B5D4
:103C900000F51C5400F51D56243404360C27256805
:103CA00063680D440B2D13440ED80F2B0CDC002B36
:103CB00005DB07FB03032B4493F87D3423B9083459
:103CC000B442ECD10020F0BD0120FCE7F8B5044679
:103CD0001FF0CEF8072390FBF3F3C3EBC303C01A26
:103CE0000423C4F8683400234101C4F86C3404F59B
:103CF0001D5504F51C53A1F1E007C4F870042433EA
:103D000022460435DC39DE591E605E585E60083399
:103D1000AB42F8D100F51D6004EB800004F1B00166
:103D20004368012043F07F43C2F8E03382F8DD03AB
:103D30002C328A42F8D12046FFF77EFFD4F86C245B
:103D4000D4F868142046FFF7A2FFC8B1FFF7FEFEC3
:103D5000D4F84035834202D91846FFF7FFFE01230D
:103D600084F87C3484F8C13204F5277004F50054DB
:103D70000CF0C8FB0223C4F860370023C4F8643792
:103D8000F8BD2DE9F0470025064600F27C48AA461A
:103D90007419C1460C2719F8012F94F86935012AC6
:103DA00015D13BB984F86925D4F8443504F2445060
:103DB0005B699847013F04F12C04ECD105F50475CB
:103DC000B5F5045F08F10C08E2D1BDE8F087002BDF
:103DD000F0D084F869A5E7E72DE9F0410021044619
:103DE0000F264FF00C0800F55E7708FB06F505F28C
:103DF0007C432344002213F8010F38B301320C2A0C
:103E0000F9D1D4F84035164A0A33C4F840351021A8
:103E100038460EF0E8FD04F514700CF073FB6319DE
:103E2000002209E003F58E600021013110F8015FE6
:103E300005730C29F9D10C3BA342F3D1C4F87D24BE
:103E4000C4F88124C4F885240121CEE7013ECCD2F8
:103E500021B12046BDE8F041FFF793BFBDE8F081F6
:103E60008C4B0208F8B500F51C52D0F86854D0F815
:103E70006C64044600F51D5024320430536833440A
:103E80000F2B0AD8116829440B2906D80C2707FBE9
:103E900003430B44012183F87D1408328242EDD1A3
:103EA00004F56E7504F58D6600272B6885F825707E
:103EB00028465B692C359847B542F6D12046FFF776
:103EC0008BFF2046FFF75DFF2823C4F87834F8BD48
:103ED00038B50025044680F87C5480F8C15200F5BE
:103EE00027700CF00FFB2946C02204F27D401FF022
:103EF00025F92B46104AC4F84055102104F55E7090
:103F00000EF071FD04F514700CF0FCFAFFF71EFEC4
:103F1000094A0346102104F556700EF064FD04F5BD
:103F200001700CF0EFFA2046FFF72BFF2046BDE8AA
:103F30003840FFF7CBBE00BF8C4B0208D0F86814A6
:103F4000D0F86C2410B501390446FFF7A0FE30B953
:103F5000C4F868142046BDE81040FFF76DBE10BDE0
:103F6000D0F86814D0F86C2410B501310446FFF77E
:103F70008EFE30B9C4F868142046BDE81040FFF743
:103F80005BBE10BDD0F86C24D0F8681410B50132B7
:103F90000446FFF77CFE20B9C4F86C242046FFF7E6
:103FA0004BFE0523C4F8783410BD2823C0F87834BC
:103FB00070472DE9F041D0F87034012B88B04BD018
:103FC00000F5005300F51C52243200F51D56D3F8BD
:103FD0002CE7D3F830C7694604366F461346D3E959
:103FE00000450833A5EB0C05A4EB0E04AEEB05056C
:103FF0006444B3423D607C6007F10807EFD1D0F81C
:104000006874D0F86CC40C4600254FF00C0E236881
:1040100007EB03086368B8F10B0F63441CD80F2B40
:104020001ADC002B05DB0EFB0303434493F87D34BD
:1040300093B90135042D04F10804E8D10B6813602D
:104040004B6853600832B24201F10801F6D108B062
:10405000BDE8F041FFF7F0BD08B0BDE8F081000019
:1040600038B500F500550446D5F86027002A0FDD65
:10407000D5F86437012A03F10103C5F8643763D129
:10408000012B4FD1012239484FF4005100F0FAFFC3
:1040900094F87C34002B44D1E06BFFF707FD28B186
:1040A000E06BFFF707FD2046FFF748FFE06BFFF7E7
:1040B00006FD28B1E06BFFF706FD2046FFF750FF35
:1040C000E06BFFF705FD28B1E06BFFF705FD20462B
:1040D000FFF76FFFE06BFFF704FD28B1E06BFFF720
:1040E00004FD2046FFF74EFFD4F87434D4F878244A
:1040F00001339342C4F8743413DBD4F86C24D4F83D
:1041000068140023C4F8743401322046FFF7BFFD61
:1041100020BBC4F86C242046FFF78EFD2823C4F88A
:10412000783438BD0F2B01D10022ACE7192BA9D070
:10413000282BADD10D4800224FF4005100F0A2FF12
:104140000023C5F86037A3E7022AA1D1012B99D03B
:104150001E2BE9D02D2B95D05A2BEAE72046FFF7EE
:1041600081FE2046FFF7B2FDD8E700BF00180240ED
:104170002DE9F04F044685B00025FEF75BFE04F5FF
:10418000277A00F057FB1EF045FE504684F87C5419
:1041900084F8C1520CF0B6F9C022294604F27D40E1
:1041A0001EF0CCFF2B46374AC4F84055102104F5C9
:1041B0005E700EF018FC04F514700CF0A3F9FFF714
:1041C000C5FC304A0346102104F556700EF00BFC76
:1041D00004F501700CF096F904F24453A9460293D9
:1041E000AB46029B2AB203EB09070026142331B227
:1041F00038460093039204F10408FEF74FFF14368B
:10420000214BBB6287F825B039464046B6B205F06F
:1042100002F8F02E039A07F12C07E7D109F504798B
:104220001435B9F5045FADB2DBD104F56E7504F554
:104230008D674FF0140900260022114628461423EA
:10424000CDF80090FEF72AFF85F825602946404604
:104250002C3504F0E0FFBD42EED15146404605F05A
:1042600051F84046514604F0D6FF04F500530122B0
:104270002046C3F86027C3F8646705B0BDE8F04F77
:10428000FFF724BD8C4B020800E6E6FFF0207047E4
:104290004FF4A07070472920FDF704BD2820FDF7DA
:1042A00001BD08B5FDF7D2FCCA20FDF7FBFCC32019
:1042B000FDF7DCFC0820FDF7D9FC5020FDF7D6FC0B
:1042C000CF20FDF7EFFC0020FDF7D0FCC120FDF76B
:1042D000CDFC3020FDF7CAFCED20FDF7E3FC6420A7
:1042E000FDF7C4FC0320FDF7C1FC1220FDF7BEFC66
:1042F0008120FDF7BBFCE820FDF7D4FC8520FDF70D
:10430000B5FC0020FDF7B2FC7820FDF7AFFCCB2018
:10431000FDF7C8FC3920FDF7A9FC2C20FDF7A6FC11
:104320000020FDF7A3FC3420FDF7A0FC0220FDF7E0
:104330009DFCF720FDF7B6FC2020FDF797FCEA2056
:10434000FDF7B0FC0020FDF791FC0020FDF78EFC8E
:10435000B120FDF7A7FC0020FDF788FC1B20FDF72E
:1043600085FCB620FDF79EFC0A20FDF77FFCA2200D
:10437000FDF77CFCC020FDF795FC1020FDF776FCD6
:10438000C120FDF78FFC1020FDF770FCC520FDF764
:1043900089FC4520FDF76AFC1520FDF767FCC72066
:1043A000FDF780FC9020FDF761FC3620FDF77AFCDC
:1043B000C820FDF75BFCF220FDF774FC0020FDF740
:1043C00055FCB020FDF76EFCC220FDF74FFCB62077
:1043D000FDF768FC0A20FDF749FCA720FDF746FC25
:1043E0002720FDF743FC0420FDF740FC2A20FDF7C1
:1043F00059FC0020FDF73AFC0020FDF737FC0020B7
:10440000FDF734FCEF20FDF731FC2B20FDF74AFCD3
:104410000020FDF72BFC0020FDF728FC0120FDF714
:1044200025FC3F20FDF722FCF620FDF73BFC012098
:10443000FDF71CFC0020FDF719FC0620FDF716FC1B
:104440002C20FDF72FFCC820FDF778FC2620FDF777
:1044500029FC0120FDF70AFCE020FDF723FC0F20DA
:10446000FDF704FC2920FDF701FC2420FDF7FEFBED
:104470000C20FDF7FBFB0E20FDF7F8FB0920FDF7F4
:10448000F5FB4E20FDF7F2FB7820FDF7EFFB3C201B
:10449000FDF7ECFB0920FDF7E9FB1320FDF7E6FB38
:1044A0000520FDF7E3FB1720FDF7E0FB1120FDF7EA
:1044B000DDFB0020FDF7DAFBE120FDF7F3FB002038
:1044C000FDF7D4FB1620FDF7D1FB1B20FDF7CEFB3B
:1044D0000420FDF7CBFB1120FDF7C8FB0720FDF7FB
:1044E000C5FB3120FDF7C2FB3320FDF7BFFB4220A7
:1044F000FDF7BCFB0520FDF7B9FB0C20FDF7B6FB73
:104500000A20FDF7B3FB2820FDF7B0FB2F20FDF7B5
:10451000ADFB0F20FDF7AAFB1120FDF7C3FBC82060
:10452000FDF70CFC2920FDF7BDFBBDE808402C2061
:10453000FDF7B8BB08B5FDF789FB0321D320FDF7D4
:10454000CDFB80B208BD10B5C4B2022203212046C3
:10455000FDF734FB0A20FDF777FB204600220321FC
:10456000FDF72CFBBDE810400220FDF76DBB38B510
:104570000446E4B2FDF720FB00212046FDF734FBA2
:10458000012105462046FDF72FFB40EA052080B2B9
:1045900038BD10B5C4B240212046FDF725FB030607
:1045A00007D54C212046FDF71FFB003818BF01201E
:1045B00010BD01224B212046FDF700FB20460022C2
:1045C0004B21FDF7FBFA0020F2E773B50423C4B2D8
:1045D0000E461546D7210DEB03022046FDF71EFBC4
:1045E000019B1BBA1A0DC3F30B23328020462B808C
:1045F00001224B21FDF7E2FA00224B212046FDF774
:10460000DDFA02B070BD000010B50A4A1378984276
:1046100004460DD0517888420AD00BB141B901232C
:10462000D454FDF7C9FA2046BDE81040FFF78BBF10
:1046300010BD00BF5C3F002010B5C4B20921204668
:10464000FDF7D2FA40F00102D2B220460921BDE8BE
:104650001040FDF7B3BA10B5C4B209212046FDF7EA
:10466000C3FA092100F0FE022046BDE81040FDF724
:10467000A5BA38B5C4B20D4620460A21FDF7B4FAF2
:1046800040EA0502D2B220460A21BDE83840FDF7D3
:1046900095BA10B50446FDF790FA20461F21FFF7A2
:1046A000E8FF2046BDE81040FFF7C6BF38B5C4B2EA
:1046B0000D4620460A21FDF797FA20EA0502D2B2FC
:1046C00020460A21BDE83840FDF778BA10B5044607
:1046D000FFF7C1FF20461F21BDE81040FFF7E6BFEE
:1046E00010B5C0B20C460B21FDF77EFA204010BD7C
:1046F0001F21FFF7F5BF0A46C0B20B21FDF75EBAD6
:104700001F21FFF7F8BF38B5C4B20D462046172168
:10471000FDF76AFA20EA0502D2B220461721BDE869
:104720003840FDF74BBA70B5C4B2064604212046A6
:10473000FDF75AFA042100F0FB0205462046FDF77A
:104740003DFA3046F021FFF7DEFF05F0F802204683
:104750000421FDF733FA492220212046FDF72EFAE5
:104760000220FDF771FA204601222121FDF726FAE9
:1047700020469A224121FDF721FA204601224A21B2
:10478000FDF71CFA204601224B21FDF717FA2046BF
:1047900000224B21FDF712FA204601225621FDF797
:1047A0000DFA204601225821FDF708FA2046012281
:1047B0004021FDF703FA2046FF220B21FDF7FEF909
:1047C000BDE870400220FDF73FBA0000054BD3F86A
:1047D000882042F47002C3F888204FF000629A608B
:1047E000704700BF00ED00E008B50B4B1A6842F4BB
:1047F00000721A601A6842F480621A601A6842F401
:1048000080721A60032000F02FF80020FDF7D6FC1C
:10481000FDF7A2FA002008BD003C0240034A044B09
:1048200011681B780B441360704700BF603F002085
:1048300078000020014B1868704700BF603F0020DF
:1048400038B50446FFF7F6FF631C1CBF054B1B7809
:10485000054618BFE418FFF7EDFF431BA342FAD348
:1048600038BD00BF780000200749CA6822F4E06222
:104870000302120403F4E063120C134343F0BF631A
:1048800043F40033CB60704700ED00E0164B30B5C9
:10489000DC68C4F30224C4F10703251D042B28BFE0
:1048A0000423062D4FF0FF358CBF033C002405FA8E
:1048B00003F321EA0303A54022EA0502A3400028EE
:1048C00043EA0203ACBF00F16040084A4FEA031319
:1048D000B8BF00F00F00DBB2AABF00F5614013546F
:1048E00080F8003330BD00BF00ED00E014ED00E0C3
:1048F000002807DB044A4109012300F01F00834020
:1049000042F82130704700BF00E100E010B50446D6
:1049100050B1437903F0FF0213B90271FDF73CFA7D
:1049200001236371002010BD0120FCE710B504468F
:1049300020B390F8393003F0FF021BB980F838201B
:10494000FDF742FA022384F83930236861681A6857
:1049500022F440320A431A605A6BA16822F007021F
:104960000A435A631A6CE1686FF30D020A431A6432
:1049700000200123E06384F8393010BD0120FCE7FA
:1049800070477047036870B55E681D68F20704469B
:1049900014D5E90512D51A6822F480721A60C26B28
:1049A00042F00102C26301229A60042380F8393088
:1049B000002380F83830436903B19847B20616D512
:1049C000AB0414D523681A6822F400521A6020221E
:1049D0009A60E36B43F00203E363042384F8393005
:1049E000002384F8383063690BB1204698473007BC
:1049F00016D5290514D523681A6822F400621A60B6
:104A000008229A60E36B43F00403E363042384F811
:104A10003930002384F8383063690BB12046984759
:104A200072070BD56B0509D523681A6822F48062DA
:104A30001A6004229A602046FFF7A2FFB00714D53F
:104A4000A90512D523681A6822F400721A6002229E
:104A50009A60E36BE363012384F83930002384F820
:104A6000383023690BB120469847F20613D5EB0482
:104A700011D523681A6822F480521A6010229A60B5
:104A8000E36BE363012384F83930002384F8383082
:104A90002046FFF776FF70BDF0B590F83820012A68
:104AA00003464FF002002BD0012283F8382083F810
:104AB000390003EB0112D2E90740556A174E44EA68
:104AC0000040093C012C9CBF05F07F4210434FEA97
:104AD00001171A6888BF40EA056091B9516A3140F0
:104AE00001435162012C9969916103D8596A21F0FF
:104AF0007F4191620122002083F8392083F8380039
:104B0000F0BDD16931400143D161D919012C8969C6
:104B100011619CBF25F07F451562EBE7F0FFFC00BB
:104B2000094910B50C6924F440740C610C6944F413
:104B300040740C610C6944F001040C610260BFF325
:104B40006F8F436010BD00BF003C0240074B1A69E5
:104B500022F440721A611A6942F400721A611A69E9
:104B600042F001021A610160704700BF003C024040
:104B7000074B1A6922F440721A611A6942F4807272
:104B80001A611A6942F001021A610180704700BF80
:104B9000003C0240204BDA68D00606D51F49CA699E
:104BA00042F01002CA611022DA60DA68910606D576
:104BB0001A49CA6942F00802CA612022DA60164B1B
:104BC000DA68520606D51549CA6942F00402CA617C
:104BD0004022DA60DA68100606D51049CA6942F048
:104BE0000202CA618022DA600B4BDA68D10507D570
:104BF0000A49CA6942F00102CA614FF48072DA6060
:104C0000DA68920706D50549CA6942F02002CA61EE
:104C10000222DA60704700BF003C024080000020A2
:104C2000064B1A69002ABFBF054A5A6002F1883252
:104C30005A60BABF1869C00F00207047003C02409C
:104C400023016745034A136943F0004313610020C1
:104C5000704700BF003C0240114B70B50022044673
:104C6000DA61FFF7E7FD0F4D0646EB68DA030CD477
:104C7000EB68DB0744BF0123EB60E86810F4F970D0
:104C800007D0FFF787FF012003E0611CEDD00CB9CE
:104C9000032070BDFFF7CEFD801BA042E5D9F7E7EA
:104CA00080000020003C02402DE9F0411F4E984654
:104CB000337E012B07460D46144635D001234CF2B6
:104CC00050303376FFF7C8FFB0B9CFB9184B1A6927
:104CD00022F440721A611A691A611A69E4B242F048
:104CE00001021A612C704CF25030FFF7B5FF104AE8
:104CF000136923F00103136100233376BDE8F081CB
:104D0000012F04D1A1B22846FFF732FFEBE7022FB3
:104D100004D121462846FFF719FFE4E7224643461F
:104D20002846FFF7FDFEDEE70220E7E780000020CF
:104D3000003C02400C4B1A6922F440721A610329AC
:104D40001A690BD142F4004242F004021A611A6956
:104D500042EA002040F48030186170470129F3D006
:104D600042F40042F2E700BF003C02400F4B1A69D8
:104D700022F440721A611A69022994BF09024FF4A1
:104D800040710A431A611A6922F0F8021A611A691D
:104D90000B2888BF043042EAC00242F002021A61C6
:104DA0001A6942F480321A61704700BF003C024029
:104DB000144B1A6891050FD51A6822F400721A6014
:104DC0001A6842F400621A601A6822F400621A60DB
:104DD0001A6842F400721A600A4B1A6852050FD51D
:104DE0001A6822F480621A601A6842F480521A60CB
:104DF0001A6822F480521A601A6842F480621A60BB
:104E0000704700BF003C02402DE9F843DFF89C806A
:104E100098F81830012B05460F4642D001234CF27A
:104E2000503088F81830FFF717FF0446B8B94FF034
:104E3000FF333B602B68012B17D16968287CFFF793
:104E400079FF4CF25030FFF707FF174A136923F43C
:104E5000004323F0040304461361FFF7A9FF002376
:104E600088F818302046BDE8F883AE68DFF838903F
:104E7000D5E902231344B342EFD9297C3046FFF72A
:104E800075FF4CF25030FFF7E7FED9F8103023F0F1
:104E9000FA03C9F8103010B13E600446DDE7013670
:104EA000E6E70224DEE700BF003C0240800000206D
:104EB0002DE9F74FDFF8BC916C4A00230D680124FF
:104EC0009C4004EA0506AC4340F0B7804D680327D8
:104ED00005F003044FEA430807FA08FC671E012F98
:104EE0006FEA0C0C34D8876807EA0C0ECF6807FA13
:104EF00008F747EA0E078760476827EA060EC5F3FA
:104F000000179F4047EA0E074760C76807EA0C0E84
:104F10008F6807FA08F747EA0E07022CC76019D115
:104F20004FEAD30A00EB8A0A03F0070BDAF8207085
:104F30004FEA8B0B4FF00F0E0EFA0BFE27EA0E0E08
:104F40000F6907FA0BF747EA0E07CAF8207001E06D
:104F5000032CDAD1076804FA08F407EA0C073C438B
:104F600015F4403F046068D000240194D9F844400F
:104F700044F48044C9F84440D9F8444023F003077E
:104F800007F1804704F4804407F59C37019403F04F
:104F9000030C019CD7F808E04FEA8C0C0F2404FAAC
:104FA0000CF42EEA040E324CA0424DD004F580647D
:104FB000A0424BD004F58064A04249D004F580643F
:104FC000A04247D004F58064A04245D004F5806437
:104FD000A04243D004F58064A04241D004F580642F
:104FE000A0423FD004F58064A0423DD004F5806427
:104FF000A04214BF0A24092404FA0CF444EA0E0463
:10500000BC609468F74315F4801F0CBF3C403443E8
:105010009460D46815F4001F0CBF3C403443D46046
:10502000546815F4003F0CBF3C403443546014688E
:10503000ED0354BF3C40344314600133102B7FF424
:105040003DAF03B0BDE8F08F0024D5E70124D3E7DE
:105050000224D1E70324CFE70424CDE70524CBE7DE
:105060000624C9E70724C7E70824C5E7003C014038
:10507000000002400038024000690840003818BFB4
:10508000012070470AB1816170470904FBE7436959
:1050900001EA030221EA030141EA0241816170470A
:1050A00001684B6913F480634FF0000210D06FF475
:1050B00080634B612023026380F83D3080F83E20FE
:1050C000036C80F83C2043F0040303640120704724
:1050D000184670472DE9F84606460F4691461D468C
:1050E0004FEA114A3368BAF1010F39D15C6927EAF6
:1050F0000404A4B2B4FA84F46409A14501D00020E8
:1051000024E06A1CEFD0FFF795FB089BC01AA84269
:1051100001D8002DE6D1BAF1010F336818D15B69CF
:1051200027EA03039BB2B3FA83F35B099945D9D10C
:1051300000232022336386F83D2086F83E30326C0F
:1051400086F83C3042F0200232640120BDE8F88647
:105150009B69DB43C3F3400383F00103DBB2E5E764
:105160009C69E443C4F3400484F00104E4B2C4E75E
:105170002DE9F04104460F461646984625686869B1
:1051800027EA000080B2C0B16B695A0517D52B68B9
:1051900043F400732B606FF480636B612022002363
:1051A000236384F83D2084F83E30236C43F00403ED
:1051B0002364002384F83C300120BDE8F081731C97
:1051C000DDD0FFF737FBA0EB0800B04201D8002E7E
:1051D000D4D123685A6927EA020292B2002ACDD0BC
:1051E00000232022236384F83D2084F83E30236C82
:1051F0001343DDE770B504460D46164623685B6928
:105200001B0601D500201EE02046FFF749FFC8B964
:105210006A1CF3D0FFF70EFB801BA84201D8002DBB
:10522000ECD123685B6913F08003E7D1202223636C
:1052300084F83D2084F83E30226C84F83C3042F003
:1052400020022264012070BD2DE9F043154602685A
:1052500085B0DDE90C789946136843F480731360D8
:105260000E463B46CDF8008000224FF00111044667
:10527000FFF730FF236838B11B68DB0502D54FF418
:1052800000732364032620E006F0FE061E611A491F
:1052900043463A462046FFF76BFFA8B923680390C0
:1052A0005A6903929B690393424639462046039B01
:1052B000FFF7A0FF064660B1236C042B01BF2268F4
:1052C000136843F4007313600126304605B0BDE84F
:1052D000F083B9F1010F236802D1EDB21D61F4E74B
:1052E0002A0A1A61394642462046FFF783FF002802
:1052F000E2D12368F1E700BF020001002DE9FF477A
:105300009A46036815461A6842F480621A601A6861
:10531000DDE90C7842F480721A600E463B46CDF807
:10532000008000224FF001110446FFF7D3FE2368EE
:1053300038B11B68DB0544BF4FF4007323640320BE
:1053400021E05FFA86F906F0FE061E612A4943460F
:105350003A462046FFF70CFFA0B9236803905A692C
:1053600003929B690393424639462046039BFFF70D
:1053700041FF58B1236C042B01BF2268136843F42A
:1053800000731360012004B0BDE8F087BAF1010F8B
:1053900023681AD1EDB242461D6139462046FFF717
:1053A00029FF02460028E5D121680B6843F4807389
:1053B0000B602046CDF800803B464FF00111FFF70F
:1053C00089FE226860B11368B4E72A0A1A61394677
:1053D00042462046FFF70EFF0028CBD12368D9E7CD
:1053E00049F0010304491361204643463A4604B09C
:1053F000BDE8F047FFF7BCBE0200010070B50446EF
:105400000D46164623685B695B0701D500201EE048
:105410002046FFF745FEC8B96A1CF3D0FFF70AFA29
:10542000801BA84201D8002DECD123685B6913F0E2
:105430000403E7D12022236384F83D2084F83E3022
:10544000226C84F83C3042F020022264012070BDBE
:1054500070B504460D46164621684B6913F04003AB
:1054600001D0002011E04A69D2060FD56FF010027A
:105470004A612022236384F83D2084F83E30236C67
:105480002364002384F83C30012070BDFFF7D2F97B
:10549000801BA84201D8002DDED123685B6913F080
:1054A0004003D9D12022236384F83D2084F83E3084
:1054B000236C1343E4E7000070B5044608B90120EB
:1054C00070BD90F83D3003F0FF021BB980F83C201E
:1054D000FCF79AFC242384F83D3023681A6822F0F4
:1054E00001021A601A6842F400421A601A6822F433
:1054F00000421A6000F088FE3F4B65689D4294BFF1
:105500003E4B3F4B98428CBF00230123002BD6D14A
:105510002268394E51683B4BB0FBF3F321F03F0159
:105520001943B542516088BF4FF49676116A88BF1F
:10553000734321F03F0184BF4FF47A76B3FBF6F357
:1055400001330B431362D169431E2B4821F44F41B1
:10555000854221F0FF0132D86D0040F6FC70B3FBAC
:10556000F5F30133034242D0C3F30B031943D16176
:10557000D4E907301168034321F0C0010B431360E5
:105580009168D4E9030321F40341034321F0FF01AF
:105590000B439360D4E90530D168034321F0FF0148
:1055A0000B43D360136843F00103136000202023F2
:1055B000206484F83D30206384F83E0080E7A068D2
:1055C00050B905EB4505B3FBF5F30133C3F30B030A
:1055D0007BB143F40043C9E719206843B3FBF0F300
:1055E0000133C3F30B0323B143F44043BEE7042369
:1055F000BCE70123BAE700BFA08601007F841E003C
:10560000FF083D0040420F002DE9F743044699464C
:105610000C9E0F469046FFF70DF994F83D30202B75
:10562000054603D0022003B0BDE8F08300903C495A
:10563000192301222046FFF74DFD0028F2D194F8EE
:105640003C30012BEED02068012384F83C30036805
:10565000D9075EBF036843F001030360036823F4C6
:1056600000630360212384F83D30402384F83E30FA
:10567000002323640A9B6362BDF82C306385638D2D
:105680002385284BE3624246CDE900654B46394607
:105690002046FFF7D9FD00282AD00120C3E7FFF7F5
:1056A000A9FD40B1236C042B01BF2268136843F4A9
:1056B00000731360F1E7636A27681A4612F8011B4A
:1056C00039616262628D218D013A92B262857A6996
:1056D000481E80B2520720850AD548B15A783A61EF
:1056E00002336362638D013B02399BB2218563857E
:1056F000238D2A4631462046002BD0D1FFF77EFE6F
:105700000028CFD12268136843F40073136020236C
:1057100084F83D3084F83C0084F83E0083E700BF05
:10572000020010000000FFFF2DE9F043044687B09F
:105730009946109F0D469046FFF77CF894F83D304F
:10574000202B064604D00225284607B0BDE8F0838A
:1057500000907949192301222046FFF7BBFC00285D
:10576000F1D194F83C30012BEDD02068012384F86E
:105770003C300368DB075EBF036843F0010303604E
:10578000036823F400630360222384F83D30402340
:1057900084F83E30002323640E9B6362BDF83C30E6
:1057A0006385638D2385654BE3622946CDE90076E9
:1057B0004B4642462046FFF7A1FD054608B10125AC
:1057C000C2E7228D2368A2B902905A6902929A69AF
:1057D0000292029A1A6842F400721A60238D002B1A
:1057E0002CD1202284F83D2084F83C3084F83E30CF
:1057F000AAE7012A0AD11A6822F480621A6003908B
:105800005A6903929A690392039AE3E7022A0ED136
:105810001A6822F480621A601A6842F400621A6000
:1058200004905A6904929B690493049BD6E70590FF
:105830005A6905929B690593059BCFE7032B56D8C0
:10584000012B15D1324639462046FFF701FE0028CC
:10585000B5D123681A69636A1A70636A0133636297
:10586000238D013B2385638D013B9BB26385B5E7A7
:10587000022B334900963B464FF00002204619D1D7
:10588000FFF728FC00289AD123681A6842F40072B6
:105890001A601A69636A1A70626A531C6362238D04
:1058A000013B2385638D013B9BB2638523681B69A4
:1058B0005370D2E7FFF70EFC024600287FF47FAF5B
:1058C0002368196821F4806119601969636A197085
:1058D000636A1B4901336362238D013B2385638D1A
:1058E000013B9BB26385204600963B46C8E73246A3
:1058F00039462046FFF7ACFD00287FF460AF2368EF
:105900001A69636A1A70628D616A013A92B24B1C1D
:10591000628522686362238D5069013B9BB2400718
:1059200023857FF55BAF032B02BF136823F48063ED
:10593000136013694B7090E7020010000000FFFF36
:105940000400010010B590F83D30202BDCB216D1D8
:10595000242380F83D3003681A6822F001021A609F
:105960005A6A22F010025A625A6A114359621A683E
:1059700042F001021A6080F83D40002010BD022074
:10598000FCE730B590F83D30202BDCB216D1026830
:10599000242380F83D30136823F001031360556A17
:1059A0004FF6F0732B400B439BB25362136843F0E6
:1059B0000103136080F83D40002030BD0220FCE769
:1059C0000068D20184328318F0B5C7685D684C68FE
:1059D0000E6805F470455D60C56806F1010CC5F3FD
:1059E0000B45C7F30B472744654445EA07455D600F
:1059F000C768CD68C7F30A072F449D6805F4704552
:105A00009D60D0F80CC08D68CCF30A0C013565445C
:105A100045EA07459D601D69D1F810C08F6925F0E2
:105A200007051D61C3F810C091F8305045EA0765BD
:105A300091F8317045EA072591F8327045EA07453B
:105A40009D615D6925F0FF055D614D695D61DD6901
:105A500025F4E06525F00705DD61D1E907573D43F1
:105A6000DD61BCF1070F4D6A9D629CBF0D4D15F8BD
:105A70000C70DD6A05F0E025DD6288BF01278D6AC4
:105A8000C96AA41B7C437D43033444EA0544DC62B9
:105A90001C6B6FF30A041C631963835843F0010302
:105AA0008350F0BD8C55020838B5044600284ED00E
:105AB00090F8A13003F0FF021BB980F8A020FCF79A
:105AC000FFF9022384F8A13023689A6922F070421A
:105AD0009A61D4E901200243E06899690243206990
